{
  "contractName": "EventRepository",
  "abi": [
    {
      "constant": true,
      "inputs": [
        {
          "name": "",
          "type": "uint256"
        }
      ],
      "name": "events",
      "outputs": [
        {
          "name": "id",
          "type": "uint256"
        },
        {
          "name": "startDate",
          "type": "uint256"
        },
        {
          "name": "endDate",
          "type": "uint256"
        },
        {
          "name": "capped",
          "type": "bool"
        },
        {
          "name": "maxTickets",
          "type": "uint256"
        },
        {
          "name": "price",
          "type": "uint256"
        },
        {
          "name": "starring",
          "type": "string"
        },
        {
          "name": "status",
          "type": "uint256"
        }
      ],
      "payable": false,
      "stateMutability": "view",
      "type": "function"
    },
    {
      "anonymous": false,
      "inputs": [
        {
          "indexed": false,
          "name": "creator",
          "type": "address"
        },
        {
          "indexed": false,
          "name": "_eventId",
          "type": "uint256"
        }
      ],
      "name": "NewEvent",
      "type": "event"
    },
    {
      "anonymous": false,
      "inputs": [
        {
          "indexed": false,
          "name": "ticketOwner",
          "type": "address"
        },
        {
          "indexed": false,
          "name": "_ticketId",
          "type": "uint256"
        },
        {
          "indexed": false,
          "name": "_eventId",
          "type": "uint256"
        }
      ],
      "name": "TicketRegistered",
      "type": "event"
    },
    {
      "anonymous": false,
      "inputs": [
        {
          "indexed": false,
          "name": "_eventId",
          "type": "uint256"
        },
        {
          "indexed": false,
          "name": "eventCreator",
          "type": "address"
        }
      ],
      "name": "EventCancelled",
      "type": "event"
    },
    {
      "constant": false,
      "inputs": [
        {
          "name": "id",
          "type": "uint256"
        },
        {
          "name": "startDate",
          "type": "uint256"
        },
        {
          "name": "endDate",
          "type": "uint256"
        },
        {
          "name": "capped",
          "type": "bool"
        },
        {
          "name": "maxTickets",
          "type": "uint256"
        },
        {
          "name": "price",
          "type": "uint256"
        },
        {
          "name": "starring",
          "type": "string"
        },
        {
          "name": "status",
          "type": "uint256"
        }
      ],
      "name": "createEvent",
      "outputs": [],
      "payable": false,
      "stateMutability": "nonpayable",
      "type": "function"
    },
    {
      "constant": false,
      "inputs": [
        {
          "name": "_ticketRepositoryAddress",
          "type": "address"
        },
        {
          "name": "_ticketId",
          "type": "uint256"
        },
        {
          "name": "_eventId",
          "type": "uint256"
        }
      ],
      "name": "registerTicket",
      "outputs": [],
      "payable": true,
      "stateMutability": "payable",
      "type": "function"
    },
    {
      "constant": false,
      "inputs": [
        {
          "name": "_eventId",
          "type": "uint256"
        }
      ],
      "name": "cancelEvent",
      "outputs": [],
      "payable": false,
      "stateMutability": "nonpayable",
      "type": "function"
    },
    {
      "constant": false,
      "inputs": [
        {
          "name": "_eventId",
          "type": "uint256"
        }
      ],
      "name": "refundCustomer",
      "outputs": [],
      "payable": false,
      "stateMutability": "nonpayable",
      "type": "function"
    }
  ],
  "bytecode": "0x608060405234801561001057600080fd5b50610c29806100206000396000f30060806040526004361061006d576000357c0100000000000000000000000000000000000000000000000000000000900463ffffffff1680630b791430146100725780633f69babd1461014d578063917d619a1461017a578063b87f8c45146101a7578063ccb68747146101f1575b600080fd5b34801561007e57600080fd5b5061009d600480360381019080803590602001909291905050506102a2565b604051808981526020018881526020018781526020018615151515815260200185815260200184815260200180602001838152602001828103825284818151815260200191508051906020019080838360005b8381101561010b5780820151818401526020810190506100f0565b50505050905090810190601f1680156101385780820380516001836020036101000a031916815260200191505b50995050505050505050505060405180910390f35b34801561015957600080fd5b506101786004803603810190808035906020019092919050505061039e565b005b34801561018657600080fd5b506101a5600480360381019080803590602001909291905050506104a1565b005b6101ef600480360381019080803573ffffffffffffffffffffffffffffffffffffffff1690602001909291908035906020019092919080359060200190929190505050610638565b005b3480156101fd57600080fd5b506102a06004803603810190808035906020019092919080359060200190929190803590602001909291908035151590602001909291908035906020019092919080359060200190929190803590602001908201803590602001908080601f0160208091040260200160405190810160405280939291908181526020018383808284378201915050505050509192919290803590602001909291905050506109fd565b005b6000818154811015156102b157fe5b90600052602060002090600802016000915090508060000154908060010154908060020154908060030160009054906101000a900460ff1690806004015490806005015490806006018054600181600116156101000203166002900480601f01602080910402602001604051908101604052809291908181526020018280546001816001161561010002031660029004801561038e5780601f106103635761010080835404028352916020019161038e565b820191906000526020600020905b81548152906001019060200180831161037157829003601f168201915b5050505050908060070154905088565b803373ffffffffffffffffffffffffffffffffffffffff166002600083815260200190815260200160002060009054906101000a900473ffffffffffffffffffffffffffffffffffffffff1673ffffffffffffffffffffffffffffffffffffffff1614151561040c57600080fd5b600360008381548110151561041d57fe5b9060005260206000209060080201600701819055507f3f2d7c1ae47747d50b6fe838741f2be679d215c2f3089cdc542a958a48aa8dfc8233604051808381526020018273ffffffffffffffffffffffffffffffffffffffff1673ffffffffffffffffffffffffffffffffffffffff1681526020019250505060405180910390a15050565b60026000828154811015156104b257fe5b906000526020600020906008020160070154141580156104f3575060016000828154811015156104de57fe5b90600052602060002090600802016007015414155b15156104fe57600080fd5b600060015411151561059e576040517f08c379a00000000000000000000000000000000000000000000000000000000081526004018080602001828103825260218152602001807f4e6f7420656e6f7567682066756e647320696e207468697320636f6e7472616381526020017f740000000000000000000000000000000000000000000000000000000000000081525060400191505060405180910390fd5b6000818154811015156105ad57fe5b9060005260206000209060080201600501546001600082825403925050819055503373ffffffffffffffffffffffffffffffffffffffff166108fc6000838154811015156105f757fe5b9060005260206000209060080201600501549081150290604051600060405180830381858888f19350505050158015610634573d6000803e3d6000fd5b5050565b6000838360008273ffffffffffffffffffffffffffffffffffffffff16636352211e836040518263ffffffff167c010000000000000000000000000000000000000000000000000000000002815260040180828152602001915050602060405180830381600087803b1580156106ad57600080fd5b505af11580156106c1573d6000803e3d6000fd5b505050506040513d60208110156106d757600080fd5b810190808051906020019092919050505090503373ffffffffffffffffffffffffffffffffffffffff168173ffffffffffffffffffffffffffffffffffffffff1614151561072457600080fd5b3493506000808681548110151561073757fe5b9060005260206000209060080201600701541415156107e4576040517f08c379a00000000000000000000000000000000000000000000000000000000081526004018080602001828103825260248152602001807f4576656e74206973206e6f742061637469766520666f72206e6577207469636b81526020017f6574732e0000000000000000000000000000000000000000000000000000000081525060400191505060405180910390fd5b6000858154811015156107f357fe5b90600052602060002090600802016005015484101515156108a2576040517f08c379a00000000000000000000000000000000000000000000000000000000081526004018080602001828103825260278152602001807f4e6f7420656e6f7567682066756e647320746f20636f766572207469636b657481526020017f2070726963652e0000000000000000000000000000000000000000000000000081525060400191505060405180910390fd5b60036000868152602001908152602001600020869080600181540180825580915050906001820390600052602060002001600090919290919091505550836001600082825401925050819055506000858154811015156108fe57fe5b906000526020600020906008020160050154841115610981573373ffffffffffffffffffffffffffffffffffffffff166108fc60008781548110151561094057fe5b90600052602060002090600802016005015486039081150290604051600060405180830381858888f1935050505015801561097f573d6000803e3d6000fd5b505b7fab8d952bbea5f1947abaa7f2ebd632db25948d9b73e0cb3377739d4440fea180338787604051808473ffffffffffffffffffffffffffffffffffffffff1673ffffffffffffffffffffffffffffffffffffffff168152602001838152602001828152602001935050505060405180910390a150505050505050565b6000610100604051908101604052808a81526020018981526020018881526020018715158152602001868152602001858152602001848152602001838152509080600181540180825580915050906001820390600052602060002090600802016000909192909190915060008201518160000155602082015181600101556040820151816002015560608201518160030160006101000a81548160ff0219169083151502179055506080820151816004015560a0820151816005015560c0820151816006019080519060200190610ad5929190610b58565b5060e082015181600701555050507f39f66439162e183441e777ff253d2c9f5ee9fec6df2f09c9b34d1aa97dfb21673389604051808373ffffffffffffffffffffffffffffffffffffffff1673ffffffffffffffffffffffffffffffffffffffff1681526020018281526020019250505060405180910390a15050505050505050565b828054600181600116156101000203166002900490600052602060002090601f016020900481019282601f10610b9957805160ff1916838001178555610bc7565b82800160010185558215610bc7579182015b82811115610bc6578251825591602001919060010190610bab565b5b509050610bd49190610bd8565b5090565b610bfa91905b80821115610bf6576000816000905550600101610bde565b5090565b905600a165627a7a723058208543e5ac17602699ee0ac5a4d3c9ad22e1f726b94c57c9d0c288a7d542337ddc0029",
  "source": "pragma solidity ^0.4.24;\n\nimport \"./TicketRepository.sol\";\n\n\ncontract EventRepository {\n    Event[] public events;\n    uint256 totalCollected;\n    mapping(uint256=>address) eventCreators;\n    mapping(uint256=>uint256[]) eventToTickets;\n    \n    struct Event{\n        uint256 id;\n        uint256 startDate;\n        uint256 endDate;\n        bool capped;\n        uint256 maxTickets;\n        uint256 price;\n        string starring;\n        uint256 status;\n    }\n    \n    event NewEvent( \n        address creator, \n        uint256 _eventId\n    );\n\n    event TicketRegistered(\n        address ticketOwner,\n        uint256 _ticketId, \n        uint256 _eventId\n    );\n\n    event EventCancelled (\n        uint256 _eventId,\n        address eventCreator\n    );\n\n    modifier isOwner(address _ticketRepositoryAddress, uint256 _ticketId){\n        address ticketOwner = TicketRepository(_ticketRepositoryAddress).ownerOf(_ticketId);\n        require(ticketOwner == msg.sender);\n        _;\n    }\n\n    modifier isEventOwner(uint256 _eventId){\n        require(eventCreators[_eventId] == msg.sender);\n        _;\n    }\n\n    \n    function createEvent(\n        uint256 id,\n        uint256 startDate,\n        uint256 endDate,\n        bool capped,\n        uint256 maxTickets,\n        uint256 price,\n        string starring,\n        uint256 status) public{\n        events.push(Event(id, startDate, endDate, capped, maxTickets, price, starring, status));\n        emit NewEvent(msg.sender, id);\n    }\n    \n    function registerTicket(\n        address _ticketRepositoryAddress, \n        uint256 _ticketId, \n        uint256 _eventId) isOwner(_ticketRepositoryAddress, _ticketId) public payable{\n        uint256 ethSent = msg.value;\n        require(events[_eventId].status == 0, \"Event is not active for new tickets.\");\n        require(ethSent >= events[_eventId].price, \"Not enough funds to cover ticket price.\");\n        eventToTickets[_eventId].push(_ticketId);\n        totalCollected += ethSent;\n        if(ethSent > events[_eventId].price){\n            msg.sender.transfer(ethSent - events[_eventId].price);\n        }\n\n        emit TicketRegistered(msg.sender, _ticketId, _eventId);\n        \n    }\n\n    function cancelEvent(uint256 _eventId) isEventOwner(_eventId) public{\n        events[_eventId].status = 3;\n        emit EventCancelled(_eventId, msg.sender);\n    }\n\n    function refundCustomer(uint256 _eventId) public{\n        require(events[_eventId].status != 2 && events[_eventId].status != 1);\n        require(totalCollected > 0, \"Not enough funds in this contract\");\n        totalCollected -= events[_eventId].price;\n        msg.sender.transfer(events[_eventId].price);\n    }\n\n    \n\n\n\n    \n\n\n}",
  "sourcePath": "/Users/fboyd/Documents/projects/erc721-tickets/backend/contracts/EventRepository.sol",
  "compiler": {
    "name": "solc",
    "version": "0.4.24+commit.e67f0147.Emscripten.clang"
  },
  "schemaVersion": "2.0.1",
  "updatedAt": "2018-12-27T21:15:07.318Z"
}